:020000022000DC
:106000000000012001660200296602002B660200E2
:106010002D6602002F6602003166020000000000BB
:1060200000000000000000000000000033660200D5
:106030003566020000000000376602003966020083
:106040003B6602003B6602003B6602003B660200C4
:106050003B6602003B6602003B6602003B660200B4
:106060003B6602003B6602003B6602003B660200A4
:106070003B6602003B6602003B6602003B66020094
:106080003B6602003B6602003B6602003B66020084
:106090003B6602003B6602003B6602003B66020074
:1060A0003B6602003B6602003B6602003B66020064
:1060B0003B6602003B66020000000000000000009A
:1060C0003B6602003B6602003B6602003B66020044
:1060D0003B6602003B6602003B66020000000000D7
:1060E00000000000000000000000000000000000B0
:1060F00000000000000000000000000000000000A0
:10610000000000000000000000000000000000008F
:10611000000000000000000000000000000000007F
:10612000000000000000000000000000000000006F
:10613000000000000000000000000000000000005F
:10614000000000000000000000000000000000004F
:10615000000000000000000000000000000000003F
:10616000000000000000000000000000000000002F
:10617000000000000000000000000000000000001F
:10618000000000000000000000000000000000000F
:1061900000000000000000000000000000000000FF
:1061A00000000000000000000000000000000000EF
:1061B00000000000000000000000000000000000DF
:1061C00000000000000000000000000000000000CF
:1061D00000000000000000000000000000000000BF
:1061E00000000000000000000000000000000000AF
:1061F000000000000000000000000000000000009F
:1062000010B5054C237833B9044B13B10448AFF3F0
:1062100000800123237010BDE89C002000000000D6
:106220001C69020008B5034B1BB103490348AFF3D7
:10623000008008BD00000000EC9C00201C690200EA
:10624000A3F5803A704700BF174B002B08BF134BD4
:106250009D46FFF7F5FF00218B460F461348144A71
:10626000121A00F01FFA0E4B002B00D098470D4B6E
:10627000002B00D098470020002104000D000D489D
:10628000002802D00C4800F0CFFA00F0E7F9200017
:10629000290000F013F800F0D1F900BF0000080059
:1062A000000000000000000000000120E89C002029
:1062B000089D002029680200356802000D4D4FF04E
:1062C000A04408B50323C4F8103745F00105D4F8FD
:1062D0000435DA4302F0100203F01003C4F8082575
:1062E0004FF4FA76C4F80C354FF47A40A847013ED3
:1062F000FAD1ECE710690200BFF34F8F0549064B56
:10630000CA6802F4E0621343CB60BFF34F8F00BF53
:10631000FDE700BF00ED00E00400FA054FF0704318
:1063200093F8E02F062A10D1D3F8E42F12070CD1EE
:10633000D3F8E80F00F0F003302B08D000F0E000B5
:10634000A0F1400358425841704700207047012097
:1063500070474FF0704393F8E02F062A0CD1D3F822
:10636000E42F120708D1D3F8E80F00F0F000A0F1F5
:1063700030035842584170470020704708B5FFF776
:10638000CDFF40B14FF08053934AD3F82433C3F389
:106390000423C2F84035FFF7DCFF10B18F4B904A61
:1063A0005A67FFF7BBFF48B14FF080534FF0804270
:1063B000D3F84432C3F34233C2F83C35FFF7C9FF88
:1063C00030B1884AD2F8FC3023F08073C2F8FC3038
:1063D000FFF7A4FF40B14FF080430022C3F80C2127
:1063E000C3F81021C3F83825FFF7B3FF20B14FF0F1
:1063F00080430322C3F8A025FFF7ABFF60B17A4BBF
:106400000522C3F810260122C3F888260022C3F80B
:1064100018263F22C3F814264FF0704393F8E02F5C
:10642000062A50D1D3F8E42F10074CD1D3F8E83F17
:1064300003F0F003502B46D14FF080526B4BD2F853
:106440000414C3F82015D2F80814C3F82415D2F8A0
:106450000C14C3F82815D2F81014C3F82C15D2F870
:106460001414C3F83015D2F81814C3F83415D2F840
:106470001C14C3F84015D2F82014C3F84415D2F800
:106480002414C3F84815D2F82814C3F84C15D2F8D0
:106490002C14C3F85015D2F83014C3F85415D2F8A0
:1064A0003414C3F86015D2F83814C3F86415D2F860
:1064B0003C14C3F86815D2F84014C3F86C15D2F830
:1064C0004424C3F87025FFF729FF48B14FF08053EB
:1064D0004FF08042D3F8583203F04F03C2F8E43E45
:1064E000FFF71CFF48B14FF08043D3F80024D107D9
:1064F00044BF6FF00102C3F800244FF08053D3F87B
:106500003021062A0AD1D3F83431062B01BF384A8C
:10651000D2F83C3743F48063C2F83C37314AD2F8B2
:10652000883043F47003C2F88830BFF34F8FBFF355
:106530006F8F4FF01023D3F80C22D2071DD52D4BAF
:106540000122C3F80425D3F80024002AFBD04FF021
:106550001022D2F80C3223F00103C2F80C32254B82
:10656000D3F80024002AFBD00022C3F80425D3F876
:106570000024002AFBD0FFF7BFFED3F80022002A38
:1065800003DBD3F80432002B22DA1A4B0122C3F8C2
:106590000425D3F80024002AFBD04FF01022152147
:1065A000C2F80012D3F80024002AFBD04FF01023C9
:1065B0001522C3F804220F4BD3F80024002AFBD085
:1065C0000022C3F80425D3F80024002AFBD0D2E728
:1065D000094B0A4A1A6008BD0030014000C007405C
:1065E0000DF0ADBA00ED00E00050004000C00040EA
:1065F0000010004000E00140A89800200090D00367
:106600000649074A074B9B1A03DD043BC858D05084
:10661000FBDCFFF7B3FEFFF717FE0000286902005E
:10662000A8980020E89C0020FEE7FEE7FEE7FEE7D2
:10663000FEE7FEE7FEE7FEE7FEE7FEE708B500211E
:10664000044600F08BF8044B1868C36B03B19847FD
:10665000204600F04FF900BF1869020070B50D4EDA
:106660000D4D761BB61006D0002455F8043B0134BE
:106670009847A642F9D1094E094D761B00F03CF926
:10668000B61006D0002455F8043B01349847A642C2
:10669000F9D170BDDC9C0020DC9C0020E49C002033
:1066A000DC9C0020830730B548D0541E002A3FD020
:1066B000CAB2034601E0013C3AD303F8012B9D071F
:1066C000F9D1032C2DD9CDB245EA05250F2C45EA89
:1066D000054536D9A4F1100222F00F0C03F1200E6B
:1066E000E6444FEA121C03F1100242E9045542E964
:1066F000025510327245F8D10CF1010214F00C0F62
:1067000003EB021204F00F0C13D0ACF1040323F0DE
:1067100003030433134442F8045B9342FBD10CF0AF
:1067200003042CB1CAB21C4403F8012B9C42FBD1D8
:1067300030BD64461346002CF4D1F9E703461446F5
:10674000BFE71A46A446E0E7024B13B1024800F047
:106750006BB8704700000000356802002DE9F84F63
:106760002F4B2DED028B834618680F4600F078F80A
:106770002C4BD3F80080D8F84861AEB108EE10BABF
:106780004FF001094FF0000A7468651E0CD4013403
:1067900006EB840487B1D4F80031BB420CD0013D34
:1067A0006B1CA4F10404F5D1BDEC028B1C4B1868E2
:1067B000BDE8F84F00F056B873682268013BAB4261
:1067C0000CBF7560C4F800A0002AE8D0D6F8880194
:1067D000D6F804B009FA05F101420BD1904772686E
:1067E0005A4513D1D8F84831B342D8D01E46002EAE
:1067F000CAD1D9E7D6F88C0101420CD1D4F8801067
:1068000018EE100A904772685A45EBD0D8F84861E4
:10681000002EB9D1C8E7D4F880009047DFE700BF69
:10682000D89C002018690200002301461A46184629
:1068300000F01AB838B5084B084D5B1B9C1007D008
:10684000043B1D44013C55F804399847002CF9D10C
:10685000BDE8384000F056B8E89C0020E49C0020D9
:10686000704700BF704700BF2DE9F047DFF880A0F8
:106870000646DAF8000098460F469146FFF7F0FF0B
:106880001A4B1B68D3F8484124B365681F2D26DCDA
:106890005EB96B1C0235DAF80000636044F82570BD
:1068A000FFF7E0FF0020BDE8F08704EB850101233E
:1068B000C1F88890D4F88821AB401A43022EC4F85E
:1068C0008821C1F80881E4D1D4F88C211343C4F89D
:1068D0008C31DEE703F5A674C3F84841D5E7DAF852
:1068E0000000FFF7BFFF4FF0FF30DCE71869020040
:1068F000D89C0020FEE700BFF8B500BFF8BC08BC7C
:106900009E467047F8B500BFF8BC08BC9E4670476D
:106910000338FDD870470000B09800200000000048
:0869200020F9FF7F01000000D7
:106928000090D00300000000000000009C9B0020A5
:10693800049C00206C9C0020000000000000000067
:10694800000000000000000000000000000000003F
:10695800000000000000000000000000000000002F
:10696800000000000000000000000000000000001F
:10697800000000000000000000000000000000000F
:1069880000000000000000000000000000000000FF
:1069980000000000000000000000000000000000EF
:1069A80000000000000000000000000000000000DF
:1069B80000000000000000000000000000000000CF
:1069C80000000000000000000000000000000000BF
:1069D80001000000000000000E33CDAB34126DE65C
:1069E800ECDE05000B0000000000000000000000C5
:1069F800000000000000000000000000000000008F
:106A0800000000000000000000000000000000007E
:106A1800000000000000000000000000000000006E
:106A2800000000000000000000000000000000005E
:106D5800049D0020496702002562020001620200CA
:040000032000660172
:00000001FF
