:10000000000002204D36000075360000810C000013
:10001000793600007B3600007D36000000000000CD
:100020000000000000000000000000007F3600001B
:100030008136000000000000833600008536000095
:100040006D1E00008736000001210000952600008B
:10005000A5260000873600006D1F00005522000015
:10006000C1240000D124000087360000873600003C
:10007000873600008736000087360000873600008C
:1000800087360000AD080000873600008736000084
:1000900045090000873600008736000087360000DB
:1000A000873600008736000087360000873600005C
:1000B0001D22000087360000000000000000000044
:1000C000873600002D220000873600001124000032
:1000D000873600008736000087360000873600002C
:1000E0002D2F0000000000000000000000000000B4
:1000F0000000000087360000000000008736000086
:1001000000000000000000000000000000000000EF
:1001100000000000000000000000000000000000DF
:1001200000000000000000000000000000000000CF
:1001300000000000000000000000000000000000BF
:1001400000000000000000000000000000000000AF
:10015000000000000000000000000000000000009F
:10016000000000000000000000000000000000008F
:10017000000000000000000000000000000000007F
:10018000000000000000000000000000000000006F
:10019000000000000000000000000000000000005F
:1001A000000000000000000000000000000000004F
:1001B000000000000000000000000000000000003F
:1001C000000000000000000000000000000000002F
:1001D000000000000000000000000000000000001F
:1001E000000000000000000000000000000000000F
:1001F00000000000000000000000000000000000FF
:100200000348044B834202D0034B03B118477047A5
:100210000C0700200C070020000000000548064BDA
:100220001B1AD90F01EBA301491002D0034B03B1F4
:10023000184770470C0700200C0700200000000042
:1002400010B5064C237843B9FFF7DAFF044B13B11E
:100250000448AFF300800123237010BD0C07002079
:100260000000000078C9000008B5054B1BB1054926
:100270000548AFF30080BDE80840FFF7CFBF00BFDF
:10028000000000001007002078C90000A3F5803AA4
:10029000704700BF174B002B08BF134B9D46FFF75D
:1002A000F5FF00218B460F461348144A121A03F03B
:1002B000B5FB0E4B002B00D098470D4B002B00D008
:1002C00098470020002104000D000D48002802D0AE
:1002D0000C4803F0ABFD03F0EFFB2000290000F019
:1002E00081F803F0D1F900BF000008000000000011
:1002F00000000000000002200C070020181300205E
:100300002D3E0000617100001F284FEA80001AD9BD
:100310001A4B1B6803440129D3F880260BBF42F017
:10032000010222F00102C3F88026C3F880260BBF29
:10033000D3F88026D3F8802642F0020222F002028F
:10034000C3F8802670470E4B1B6803440129D3F87D
:1003500000270BBF42F0010222F00102C3F8002780
:10036000C3F800270BBFD3F80027D3F8002742F0CB
:10037000020222F00202C3F80027704700000020AA
:10038000040000201F280CD90A4B1B682038D3F822
:100390001025C3B2012098401040003818BF01203A
:1003A0007047054B1B68D3F81025012303FA00F0B2
:1003B000F2E700BF000000200400002010B5074C49
:1003C0000748216801F2045103F06CF921680448E0
:1003D000BDE8104001F5E06103F064B904000020BD
:1003E000F8B2000038B51348134D03F05BF9FFF77E
:1003F000E5FF00210E20FFF787FF00211720FFF700
:1004000083FF45F001050E20FFF7BCFF04461720CF
:10041000FFF7B8FF84F0010180F00102D2B2074873
:10042000C9B203F03FF90A244FF47A40A847013CCF
:10043000FAD1E8E7FCB2000030C300000CB30000C2
:1004400010B50368292B044604D9074940F2CD10A2
:1004500000F030FC23681F2B83BF03F01F032360D1
:1004600002484FF0A04010BD13B30000000300503D
:1004700007B5019001A8FFF7E3FF019A012393401C
:10048000C0F80C3503B05DF804FB07B5019001A876
:10049000FFF7D6FF019A01239340C0F8083503B057
:1004A0005DF804FB38B5054D044645F001054FF4F1
:1004B0007A40A847013CFAD138BD00BFA0C3000074
:1004C000F7B52E4F2E4E0524022517F8013B019358
:1004D00001A8FFF7B5FF019B03F5E07340F8235037
:1004E00001A816F8013B0193FFF7AAFF019B03F552
:1004F000E073013C40F82350E7D14FF0A04340F2B5
:100500000322C3F85427C3F84C2740F20312C3F860
:1005100070271520C3F87827FFF7B7FF1320FFF7E0
:10052000B4FF1C20FFF7A4FF1E20FFF7A1FF1C2033
:10053000FFF79EFF1E20FFF79BFF4FF4FA70FFF7B7
:10054000B1FF1C20FFF7A1FF1E20FFF79EFF322006
:10055000FFF7A8FF1C20FFF78BFF1E20FFF788FF87
:100560004FF4FA70FFF79EFF1C20FFF78EFF1E204E
:10057000FFF78BFFFA20FFF795FFD8E7ABC300002A
:10058000A6C3000073B506460D46144672B601F0C8
:1005900039FA01F079F80028FBD1124803F082F80B
:1005A00044F201039E420AD044F202039E4214D157
:1005B000228861680C4803F075F8FFF781FFA66890
:1005C000304601F049FC23680093024663680195B8
:1005D0003146064803F066F8EFE72946044803F081
:1005E00061F8EAE755B300006EB3000089B300007C
:1005F000B3B300002DE9F341054601F003FA01F021
:1006000043F80028FBD1294B294C9E6A294BE41A58
:10061000E408240444F00104002D42D0AA692649CC
:10062000204601F0A1F9EB680193AB680093D5E98E
:1006300000232249204601F0ACF9EB690093D5E98B
:1006400004231F49204601F098F9184BDB6A9907EB
:1006500003D51C49204601F083F9DFF87C80002592
:10066000012707FA05F3334206D058F825201AB1BE
:100670001549204601F078F901351A2DF1D13206DD
:1006800005D50A4B11495A6B204601F06DF9330428
:1006900005D5064B0E499A6B204601F065F9FFF728
:1006A0000FFF0C49204601F05BF9CEE700ED00E0BA
:1006B000CCC900007CC90000CDB30000E2B300004B
:1006C00017B4000072B40000B6B40000C1B400005A
:1006D000E1B400003FB4000038C300007047704729
:1006E000704770477047704738B50E4B1B68002144
:1006F000986802F0EBFF4FF40041002000F06AFF21
:1007000018B1094A142100F0BBF8084D00F09AFE18
:100710000A2445F001054FF47A40A847013CFAD17C
:1007200038BD00BF34000020B1B90000B0C30000E4
:100730007047000007B5044B0093044A402300F0C3
:100740001FFE03B05DF804FBA50700002A07002088
:1007500030B50F4D0FCD89B06C460FC495E80F0032
:1007600084E80F0006222823CDE9002309480A4B1C
:1007700006930022694600F0ABFB18B1074A4621F8
:1007800000F07EF8064B00221A7009B030BD00BFA1
:10079000C4C300000800002000509D0028BA0000DB
:1007A0002807002038B50E480E4C0F4D002323704B
:1007B0000378EB5CD2B273B1043002F03BFD18B1A8
:1007C0000A4A562100F05CF8094B1B7813B12378D4
:1007D000002BFCD038BD0C3002F0DAF9EFE700BF97
:1007E00008000020290700209008002028BA0000F7
:1007F0002807002008B50848084A0378D35C33B1BD
:10080000043002F095FCBDE80840FFF7A1BF0C30B2
:1008100002F052F9F7E700BF08000020900800201E
:10082000FFF796BF10B50848D4B20378074AD35CE7
:10083000224623B1043002F0FDFC204610BD0C30EE
:1008400002F0A6F9F9E700BF080000209008002098
:1008500008B50948094A0378D35C012243B1043042
:1008600002F062FD002814BF4FF0FF30012008BDE8
:100870000C3002F0F7F9F5E708000020900800209E
:1008800000B583B002900091019244F201007146DC
:100890006A46FFF777FE03B000BD0000024B4FF43D
:1008A0003C6043F001031847F0C30000F8B51E494F
:1008B0001E4B0025C1F84051C1F84451C1F84851C0
:1008C000C1F84C51C1F80051C1F804511B6843B341
:1008D000D1F8044516490968641A24F07F442F466C
:1008E0001A68A24209D8A41A15441A7CDE691AB102
:1008F000D3E905201F749047A6B90E4A0E49137814
:100900000978994205D10133DBB2022B08BF0023DD
:1009100013700A4A42F82350094B4FF48012C3F86F
:100920000021F8BD3346DBE7001001407C070020C2
:10093000780700206C0700206D070020700700205A
:1009400000E100E02DE9F04FA248A34A03781278B5
:10095000A24D9A4285B03ED00133DBB2022B12BFCA
:100960001A46002213469E4902709E4A0E6852F8AB
:100970002300331823F07F4300220B602B681746B7
:100980001446944613B942B12B6006E019688142BF
:100990000FD902B12B60091A19604FF0010A2B68B8
:1009A000DFF8548201934FF00009BFB94FF0180BE4
:1009B00045E0401A0C44D968D3F81CE0C3F800C0E5
:1009C00031B1321922F07F42C3E90121DF611F46B4
:1009D00073460122D6E70027BA46E0E73C46FF69A6
:1009E0007F4B66681A688048A368B11A21F07F417E
:1009F000814200F2CE800B440121217429682360DA
:100A00000022C4E90122E261002940F0CA802C6082
:100A1000CBE7531C98F802102E680BFB0282DBB266
:100A2000994208BF002388F8003013799468022B9C
:100A300068D0032B00F09780012B00F0978098F886
:100A4000002098F801309342E3D12B68B9F1000FF0
:100A500005D1019A9A4202D1BAF1000F43D0002B7E
:100A600041D0D3F800A0614D5D4BD5F804751C68EA
:100A7000DFF888813E1B98F8003026F07F46033669
:100A80009BB94FF48033C5F84433C5F80433584B51
:100A90004FF40032C3F880211A604FF00109C5F805
:100AA0000090FFF7FBFE88F80090B2452CBF54443D
:100AB000A41924F07F44C5F84045D5F80435DB1B64
:100AC00023F07F43E41B033324F07F44A3420AD97D
:100AD000D5F80435C5F84035FFF7E0FE444B4FF438
:100AE0000032C3F80021434B00221A7005B0BDE864
:100AF000F08F944209D01146D269002AF9D100231F
:100B000023749CE732463146F7E78C4214D1D6F87D
:100B10001CC0C5F800C0BCF1000F0DD1334B012043
:100B2000CDE9022198602E4BC3F800C0314B1870FC
:100B3000FFF7B4FEDDE902211368D269CA6112B180
:100B400011680B4413602B68B34218BF49F00109C8
:100B5000D5E73274F6690123002EFAD1002B3FF459
:100B60006EAF2E606BE700231A46F5E7217C002963
:100B70007FF465AFD66866601369A3605369E3606C
:100B80009369A3611B4B1B78002B18BF0E46666050
:100B900026E7921B22F07F429A4234BF9B1A002321
:100BA0002AE70A689A4213D3D21A0A60E1612EE753
:100BB0009B1BD66911463EB132461668B342F7D840
:100BC000F61A166016460A462360E661D461ECE622
:100BD0000A46F2E76D0700206C0700207C07002022
:100BE0007807002070070020FEFF7F000010014002
:100BF00000E100E06A070020800700206B0700206A
:100C000072B6024A13680133136070478C080020E3
:100C1000034A1368013B136003B962B6704700BF13
:100C20008C080020EFF30583C3F308032BB9EFF31F
:100C30001480C04300F0010070470120704700009D
:100C400008B5FFF7EFFF012803D00449432000F067
:100C500031F8BDE80840FFF7D3BF00BFA5BA0000D8
:100C600008B5FFF7DFFF012803D00449512000F049
:100C700021F8BDE80840FFF7CBBF00BFA5BA0000D0
:100C80001EF0040F1CBFEFF309800AE0EFF30880A9
:100C90000549064A884201D8904202D88D464FF055
:100CA0000000034B184700000000022000E0012074
:100CB000F505000007B5ADF8000001916A46002176
:100CC00044F20200FFF75EFC03B05DF804FB10B5D0
:100CD000034653E8000F0A4643E8002494F0000F4F
:100CE000F7D110BD10B5034653E8002F42EA0100CA
:100CF00043E8000494F0000FF6D110BD10B5034690
:100D000053E8000F00EA010243E8002494F0000FCA
:100D1000F6D110BD10B5034653E8002F02EB0100D9
:100D200043E8000494F0000FF6D110BD10B503465F
:100D300053E8002FA2EB010043E8000494F0000FF9
:100D4000F6D110BD0121FFF7CDBF0021FFF7D6BFBF
:100D500010B50446002834D003681BB91A49FF2097
:100D6000FFF7A8FF636823B917494FF48070FFF7B6
:100D7000A1FFA36823B9144940F20110FFF79AFFBD
:100D8000E36823B910494FF48170FFF793FF238A7A
:100D900023B90D4940F20310FFF78CFFD4E901237A
:100DA00021689B1ADBB20A60013BDBB2FF2B226891
:100DB00002D10020107110BD1168481C10600B702A
:100DC000F2E70E20F7E700BFF9BA000038B5044695
:100DD00020B912494FF49270FFF76CFF0020FFF723
:100DE0002FFF2268616813688B4215D9591E116064
:100DF00013F8013C228AE56802FB03552268A368C8
:100E000011685B1A1179DBB2994200D2137100208C
:100E1000FFF726FF284638BD0025F8E7F9BA00009D
:100E200038B50C46054620B90E4940F24710FFF789
:100E300041FF24B90B494FF4A470FFF73BFF00209A
:100E4000FFF7FEFE2A681368591C1160EA68A41AAD
:100E50002A8AB4FBF2F41C70BDE838400020FFF78A
:100E6000FFBE00BFF9BA00001FB503788DF800304F
:100E70004368019383688DF80830C368054A03937B
:100E8000054B684653F8213052F82110984705B0B9
:100E90005DF804FB940800209C0800201FB503782F
:100EA0008DF800304368019383688DF80830C3687B
:100EB000054A0393054B684653F8213052F8211038
:100EC000984705B05DF804FB940800209C080020BA
:100ED000F0B5194B90F800C0DFF86CE089B043F82A
:100EE0002C20164B16460A6943F82C200C464B7FE3
:100EF0000EF80C3007460FCC6D460FC594E80F0076
:100F000085E80F003B78CDF810C01EF803304BB1D8
:100F1000002E0B4A694608BF3246381D02F00EF813
:100F200009B0F0BD002E074A694608BF324607F1F6
:100F30000C0001F0D5FCF3E79C0800209408002089
:100F4000690E00009D0E00009008002010B50446B8
:100F500018B906493120FFF7ADFEA2682AB16369CE
:100F60002168206998470023A36010BD4EBB000094
:100F70000EB433B5059D044618B911494220FFF758
:100F800099FE63691BB90E494320FFF793FE23685E
:100F90001BB90B494420FFF78DFE63681BB9084954
:100FA0004520FFF787FE35B106AB01AA294620464A
:100FB000019300F071F802B0BDE8304003B0704713
:100FC0004EBB0000826830B40468551C8560A15493
:100FD000D0E901329A4202D330BCFFF7B7BF30BC30
:100FE000704700002DE9F84F9846DDE90A431646A0
:100FF00082460F460A464FF00109B2420FD2C14560
:1010000038BFC14613F0010B01D16CB90024012592
:10101000B8F1010F1CD908F1FF387543F8E709F161
:101020000109B2FBF6F2E8E79B070ED5B8F1000F15
:101030000CBF30252025A145E9D2013C2946504668
:10104000FFF7C0FF002CF6D1E0E72025F3E775435A
:10105000B7FBF5F39E42FAD9DFF83880B7FBF5F31A
:10106000504618F8031005FB1377FFF7ABFF2B462C
:10107000B342B5FBF6F5F1D2BBF1000F00D034B9A5
:10108000BDE8F88F20215046013CFFF79BFF4C45FF
:10109000F8D8F5E7F6C300002DE9F74F0F46904664
:1010A000054620B9B54940F25220FFF703FE6B69AF
:1010B00023B9B2494FF41570FFF7FCFD2B6823B933
:1010C000AE4940F25520FFF7F5FD6B6823B9AB49F7
:1010D00040F25620FFF7EEFD002F00F04B8117F88D
:1010E000011B49B92B7B002B00F04481284603B03B
:1010F000BDE8F04FFFF72ABF252940F0BD8000264C
:1011000002E046F001061F463B4613F8011B2D295D
:10111000F7D0302920D02B2921D02A291A4621D1D5
:10112000D8F80020111DC8F8001014681F4639783F
:101130002E2926D101374FF0000A0A203A4612F82C
:10114000011BA1F1300CBCF1090F1CD800FB0A11E6
:10115000A1F1300A1746F1E746F00206D3E746F060
:101160000406D0E7002412F8013CA3F1300109295C
:10117000DDD80A2101FB04331746A3F13004013204
:10118000F1E74FF0000A7A1C01F0FB0068281746CF
:1011900002D112F8011BF7E7782909D86F290BD87B
:1011A000632963D020D8252966D0582900F08C8087
:1011B0003B78002B93D195E770390829F8D801A224
:1011C00052F821F04B130000B1110000B1110000E2
:1011D000DD120000B1110000B3120000B1110000D7
:1011E000B1110000C9120000642901D06929DFD1C2
:1011F000D8F80020111DC8F80010D2F8009089EA34
:10120000E972A2EBE9724FF0010B0A21092A37DCDF
:10121000D34538BFD3462CB1B9F1000F01DB7207BB
:1012200000D5013CB30702D5BAF1000F03D0F00797
:1012300001D454BB0024B9F1000F2EDAC9F1000922
:101240002D212846FFF7BEFE06F00302022A04D134
:10125000BAF1000F01D124BB0024CDE9004653466A
:101260000A2249462846FFF7BDFEA1E7D8F800301C
:101270001A1DC8F8002019782846FFF7A3FE97E743
:101280000BF1010BB2FBF1F2C0E7A345D3D2202151
:101290002846013CFFF796FECBE77107D4D52B21FA
:1012A000CFE7A345D9D230212846013CFFF78AFE7B
:1012B000D1E7D8F800100A1DC8F80020CDE9004693
:1012C00053460A220968CDE7D8F800100A1DC8F86D
:1012D00000205346CDE900461022F3E7D8F800304D
:1012E0001A1DC8F8002016F00106D3F8009024D18A
:1012F000B9F1000F03D0484602F0C2FC0646B442E2
:101300001DD809F1FF3919F8011F00293FF450AF2A
:101310002846FFF757FEF6E728460136FFF752FE4C
:1013200019F806100029F7D1A642BFF441AF2021D9
:101330002846013CFFF746FEF6E70026F0E72021AD
:101340002846013CFFF73EFED9E7D8F800301A1DC9
:10135000C8F80020302128461C68FFF733FE7821AA
:101360002846FFF72FFE00220823CDE90032214650
:10137000102277E703B0BDE8F08F00BF93BB0000F9
:10138000F0B595B01D46164608460C4600F0FCFC2C
:101390001A9B0D93CDE9086500252B46082205A967
:1013A00020460A958DF82C500C9500F015FD079BF2
:1013B0000293069B03939DF814308DF8115003F0AF
:1013C0000302012A1DD1BDF81450059EC3F3C203C8
:1013D000C5F383158DF81030AA0008230EA9204606
:1013E00000F0FAFCC6F3952608AB00932A4602AB40
:1013F0000EA9304600F074FB204600F0C9FC15B081
:10140000F0BD022AF8D1BDF81650C3F3C203C5F3EC
:1014100089158DF810300827082D2E4628BF08267C
:101420003B4632460EA9204600F0D6FCAD1B08AB69
:1014300002AA31460EA8374400F0B6FB002DEBD1CE
:10144000DAE7000008B5FFF7EBF90748042100F0E0
:10145000AFFA002803DA05494820FFF72BFC044BBC
:1014600001225A7108BD00BFF8C90000DFBB0000AF
:101470001C000020037813F0040215D003F00303CE
:10148000012B03D0022B09D0012070470B68028882
:101490000233C2F3831213440B60F5E70B684288F2
:1014A000023303EB9213F7E7104670472DE9F04340
:1014B000434C884685B00546861C00201746FFF73A
:1014C000BFFB2268C8F80020D4E901130B440133A4
:1014D0009B1A9E4217D80022002F6DD005F00F05F1
:1014E000AD0145F0050565F30F022168A3680B40C7
:1014F00003330E44002044F82320266005B0BDE8E5
:10150000F043FFF7ADBB01212E48FFF703FC2E4847
:10151000FFF718FC2D48FFF715FC6068D4F8088029
:10152000009000EA0800033004EB80006946FFF7F2
:10153000A1FF009A814608EA0203B8B904EB8303CD
:10154000901CDB680193013202EA080204EB82027C
:1015500003F00303012BD268009025D0022B09D0A1
:101560001B4940F28910FFF7A5FB0DE0033304EBA4
:101570008300DBE7BDF80630C3F3891303334FEA7A
:10158000124900EB930300931048FFF7DEFB08B10C
:10159000009B63600B484946FFF7BCFBD4E901237D
:1015A00013440133226893E7BDF80430C3F3831377
:1015B0004FEA12490344E6E7AD0545F0060294E719
:1015C000A4080020C00C0020BC0C0020B80C002097
:1015D0004EBC00000B4B0C48FF2210B59A60002255
:1015E000C3F81824C3E90022C3F81424012283F8A5
:1015F000202400F085FB044610B9044800F004FCE8
:10160000204610BDA4080020E4C9000008C4000062
:1016100030B50A4C71B10A4B0A491B1BDA0800238A
:101620009A4201D1002030BD31F82350854202D0CA
:101630000133F5E7034654F83300F4E77CC90000B2
:10164000E4C900000C070020094B013903EBC0007E
:10165000032909D8DFE801F0020A040602207047D6
:101660000079704740797047002070470420704728
:101670007CC90000034BD3E90030C31A58425841DB
:10168000704700BFA40800202DE9FF47FFF7F2FFD5
:10169000002840F08B807E4DC5F81804BFF34F8FB3
:1016A0006868AC6800902040033005EB8000694614
:1016B000FFF7E0FE009B18B1D5F81824002A71D07E
:1016C00003EA04029F1C013305EB8202234005EB71
:1016D0008303D268DB68029302F00303022B0192BA
:1016E000009776D1BDF806306A48C3F38918B8F17F
:1016F000500FC14628BF4FF0500969F38F1309F10D
:101700000801ADF8063000F013FB0646002800F093
:10171000A98000F039FB00233046082201A900F01F
:1017200045FB24EA07030133B9EB830F4FEA83003B
:1017300047D95FFA89F900283FD004EA0701C4B20B
:10174000A9EB040A0331A146534C05EB81015FFA72
:101750008AFA08234A46304600F028FB34B109F1E2
:10176000080352462146304600F020FB08F10308EA
:1017700007EB98070097D5F81834002B5ED1D5F801
:101780001044002C63D1304600F002FB2046FFF7E6
:1017900057FAD5F818340BB9009B6B600020FFF79F
:1017A0005FFA4EE02A689A4204D86A60002004B0CA
:1017B000BDE8F08703EA040076E73749044682462D
:1017C000C7E704EA0701033108234A4605EB810114
:1017D000C9E7012B46D1BDF804302E48C3F383116D
:1017E000062928BF062161F38913023101F00F0198
:1017F0008900ADF8043000F09BFA064690B300F083
:10180000C3FA0023082201A9304600F0CFFA0027CE
:10181000BDF80420C2F38312BB00BA4203F10803EF
:10182000A9D900994A1C21400331009205EB81019E
:101830000422304600F0BAFA0137E9E7304600F0FA
:10184000A7FAFFF717FF80F00100C0B2AFE7E36827
:101850005B7923B1236831461B6820469847E368CB
:101860001C688EE7D5F8104454B90C4B0C480D4950
:10187000C01AC008000440F0020000F071F8E0E770
:10188000236820469B689847E3681C68ECE700BF24
:10189000A4080020E4C90000B00800207CC90000B2
:1018A000CCC90000A4BC00002DE9F74F274E044628
:1018B0000F461846914601A901229846D6F808A07D
:1018C000FFF7F4FD019D0023A81C434503EB000135
:1018D00032D100211E48FFF7FAF94FEA144980F38C
:1018E000100B1C4B1C4A9B1AB9EBD30F04D31B499A
:1018F0004FF4D770FFF7DEF96B1C03EA0A03E4002C
:1019000006EB830304F0380449EA0B4205EA0A05B2
:1019100044F00104DA60033544EA881343EA87237C
:1019200046F8253096F820341BB1FFF7ADFE0028AD
:10193000FBD103B0BDE8F08F01EA0A0106EB81019B
:1019400059F82320CA600133BFE700BFA408002074
:10195000C00C0020E4C900007CC900004EBC00009F
:1019600000231A46FFF7A0BF07B50123019201AA81
:10197000FFF79AFF03B05DF804FB1FB5CDE9012323
:10198000069B039301AA0323FFF78EFF05B05DF8C2
:1019900004FB1FB5CDE90023069B0293079B03932D
:1019A0006A460423FFF780FF05B05DF804FB0000E2
:1019B00030B51349D1F810440346002022464AB9F5
:1019C000DC682071D1F8104484B9C1F81034DB68A8
:1019D0001A600AE0D2681579A84201D01268EEE7D1
:1019E00001300A28EAD14FF0FF3030BDE468DA68F0
:1019F00024681460D1F81024D2681360F5E700BFA2
:101A0000A408002038B5084B0125D3F8104483F80A
:101A1000205404B938BDE3685D71236820465B68D3
:101A20009847E3681C68F4E7A408002010B5037A1F
:101A3000052B0C460FD0437A23B1084A08492046AB
:101A4000FFF796FA07492046FFF792FA2046BDE8CD
:101A50001040FFF77BBA002AF8D0F3E7B9BC0000CA
:101A6000BEBC0000DEBC000073B5C38804460D4652
:101A700033B1144A00921449144A2846FFF778FA01
:101A8000217A05291CD0637A4BB1A088FFF7DCFDD1
:101A90000F4B104953F820202846FFF769FA227AA5
:101AA0000D4BA08853F822600021FFF7B1FD0B49D0
:101AB00003463246284602B0BDE87040FFF758BAE8
:101AC00002B070BDB9BC0000C9BC0000C1BC0000C0
:101AD00014C40000BEBC000038C40000E1BC00001B
:101AE0002DE9F04385B01F460C9D002395F80C901E
:101AF0002B7306460C46904629463846FFF7B4FF3E
:101B0000B8F1060F09D8DFE808F00412181F2833CF
:101B1000400031462846FFF72BFA00222946384676
:101B2000FFF784FF85F80C9005B0BDE8F0832268CC
:101B300031462846FFF71CFAEFE7D4E90023314687
:101B40002846FFF715FAE8E7A3680093D4E90023D5
:101B500031462846FFF70CFADFE7E3680193A368F4
:101B60000093D4E9002331462846FFF701FAD4E771
:101B700023690293E3680193A3680093D4E90023E7
:101B800031462846FFF7F4F9C7E7636903932369F1
:101B90000293E3680193A3680093D4E900233146DC
:101BA0002846FFF7E5F9B8E708292DE9F047804610
:101BB0000E4617461C4635D8002593F80C901D7329
:101BC00019461046FFF750FFAE422DD918F80520F0
:101BD0001B492046FFF7CCF90135082DF4D11949EE
:101BE000194D2046FFF7C4F94FF0000A564522D997
:101BF00018F80A307E2B1CD8EA5C12F0970F14BF3D
:101C00001A462E2211492046FFF7B2F90AF1010ABD
:101C1000BAF1080FEAD1012221463846FFF706FF44
:101C200084F80C90BDE8F08709492046FFF7A0F939
:101C3000D2E72E22E6E707492046FFF799F9E5E7C4
:101C4000EBBC0000F5BC000081C50000F7BC000043
:101C5000F1BC0000F3BC00002DE9F74F99469DF858
:101C60003030009388469346064618B92349B6207B
:101C7000FFF720F8F28871794A43043A4A4505D8BB
:101C80001E490192C420FFF715F8019ADBF8007095
:101C9000B6F806A007EB0901914209F1040488BFD8
:101CA000A2EB0907B4FBFAF5CBF800700AFB154468
:101CB00045B9AAEB040BBB4528BFBB462FB903B0FF
:101CC000BDE8F08F3668013DF2E7009B043408EB75
:101CD000050034445A466BB12146A7EB0B0701F0CF
:101CE0001BFFBA455D443668D3464FF0000428BF59
:101CF000BB46E3E701462046EFE700BF45BD0000D5
:101D0000FFF726B8F8B546790146721E054600234E
:101D100093422D6803D30024A64202D8F8BD0133B4
:101D2000F6E70F682846FFF77BF801343946F3E7FA
:101D30002DE9F041CD1C078A0646FFF747F8043F1E
:101D40003D440446B5FBF7F5D0B14FF48073EDB2D6
:101D5000C7808380013D066080460027AF4210D2D5
:101D60003046FFF733F840B16379013363710137CF
:101D7000C8F8000006608046F0E72046FFF7C2FF83
:101D800000242046BDE8F08101210430FEF7C2BFE7
:101D900010B5012104460430FEF7C8FFC0B220B9D7
:101DA0002046BDE81040FFF7ADBF10BD1FB514467B
:101DB00003920022009203AAFFF74EFF039BA34267
:101DC00006D00449F62004B0BDE81040FEF772BF0B
:101DD00004B010BD45BD00001FB51446039201229A
:101DE000009203AAFFF738FF039BA34207D00549DF
:101DF0004FF4807004B0BDE81040FEF75BBF04B044
:101E000010BD00BF45BD000082680023936082685A
:101E10001361826853618268D3608268536082680C
:101E20001360704710B50B4AA2F58C739A4201D823
:101E300000200CE0D11A091103EBC10453F8311052
:101E4000814205D802D204F10803EFE7606810BDB3
:101E50002246EBE764C5000008B5FFF7E3FF024B3D
:101E6000002808BF184608BD64C5000007B54FF03C
:101E70008043D3F8002162B10020C3F80001D3F8F9
:101E800000210092009A0122C3F808230D4B1B6821
:101E900098474FF08043D3F8042182B10022C3F861
:101EA0000421D3F804210192019A0222C3F80823E5
:101EB000044B1B68012003B05DF804EB184703B026
:101EC0005DF804FB300E002000F1804000F5C040BA
:101ED000002382B0036003680193019B02B0704746
:101EE000C208012300F007008340885C03438B5441
:101EF0007047000010B50368292B044604D9074930
:101F000040F2CD10FEF7D6FE23681F2B83BF03F0EF
:101F10001F03236002484FF0A04010BD13B3000020
:101F20000003005013B5019001A80C46FFF7E2FF33
:101F3000019B00EB8300D0F8003723F44033C0F856
:101F40000037D0F8003743EA0443C0F8003702B046
:101F500010BD00004FF0A043D3F810350360024BD2
:101F6000D3F8103543607047000300502DE9F04F5F
:101F700000248BB0CDE902445D4D4FF48072012105
:101F800002F1804303F5C0431B68012B07D1D5F84C
:101F900004330B4203D090B2FFF796FF0C43043298
:101FA000B2F5907F4FEA4101EAD1514BD3F87C3131
:101FB000012B08D14FF4BE70FFF786FF02A844F052
:101FC0000044FFF7C7FFE3B2D3B14A4F0025012613
:101FD000344210D0AB0003F1804303F5C043D3F883
:101FE0001005D3F8101557F8253023B1C1F301417E
:101FF000C0F3052098470135082D4FEA4606E7D182
:10200000002C71DA4FF0FF33CDE906330027BA46D2
:10201000DFF8E880002518F9014F631C4FD0C4F3A6
:10202000C209E3B204F03F06012204F00704A24013
:10203000019209F128020DEB0209019919F8102CFF
:102040000A423CD09C092B4B9A1992F9302053F844
:1020500022B0BBF1000F0AD1032C30D104A93046C5
:10206000CDE904A7FFF73CFFDDE904A701E0032C5D
:10207000F4D008A80896FFF73DFF089A19F8201C2D
:10208000019B02F5E072194250F82220C2F301428E
:1020900005D0022A13D1032C0BD1214604E0032AD8
:1020A0000DD1032C05D102213046FFF73BFF01354E
:1020B000EDB2BBF1000F02D021463046D8470E4B9F
:1020C0004345A8D185B108A8FFF744FFDDE90823FF
:1020D00002998A4202D10399994205D00292CDF821
:1020E00018A00393079793E70BB0BDE8F08F00BFEC
:1020F00000600040380E0020950E0020910E002058
:1021000010B5054C23681BB904495120FEF7D2FDD8
:102110002368BDE810401847A00E00203BC1000016
:1021200038B50C4628B90C497720FEF7C3FD0020CE
:1021300038BD0A4B9842FAD10020FEF781FD084BCA
:102140001D7915B901221C601A710020FEF788FD67
:10215000002DECD01120EBE73BC100000020004037
:10216000A00E002018B906499B20FEF7A3BD054B21
:10217000984201BF044B00221A601A71704700BFD9
:102180003BC1000000200040A00E0020002382B0D0
:10219000435043580193019B02B0704770B5D0F88B
:1021A000103105460C4653B14FF48871FFF7EEFF2E
:1021B00063795A0703D523680BB101209847D5F8F6
:1021C00014315BB14FF48A712846FFF7DFFF637962
:1021D0001B0703D523680BB102209847D5F81C31A3
:1021E0005BB128464FF48E71FFF7D0FF607910F095
:1021F000100002D1236803B19847D5F8043163B1C8
:102200004FF482712846FFF7C1FF01232371236831
:102210001BB1BDE870400320184770BD014902485A
:10222000FFF7BCBFA80E002000C0014001490248D2
:10223000FFF7B4BFB00E00200010024000F1804054
:1022400000F5E040002382B0036003680193019B26
:1022500002B07047F0B5534B534CD3F8043185B0FE
:10226000002B3DD094F82E204FF48270FFF7E6FF4C
:102270002AB394F82F3013BB4A4AD2F80031002B0E
:1022800032D04FF48070FFF7D9FF638B94F82D00A4
:10229000834250D921891B1A9BB289B26383CB1A1E
:1022A000616801EB4301C2F82C16C2F830064FF406
:1022B0008270FFF7C3FF3B4B01225A6014E0636852
:1022C00002932389ADF80C30E36800218DF80410E7
:1022D00033BB2374236801A89847002384F82F3068
:1022E00094F82E30002BC7D12E4BD3F810315BB1B0
:1022F0004FF48870FFF7A2FF0023237402238DF8A8
:10230000043001A823689847264BD3F814310BB347
:102310004FF48A70FFF792FF0023237405B0F0BDDD
:10232000208B608363602081E160002AD2D11D4B45
:1023300001221A60CEE7BAD1E168012084F82F00AB
:1023400031B100206083C2F82C16C2F83036AEE7F7
:102350006183ACE765694FF000470126002DDDD0B1
:10236000B5FA85F227FA02F34632920025EA030510
:1023700002F1804303F5E0431B68002BEED01046CA
:10238000FFF75CFFD308C2F38002233B82F0010217
:102390008DF808308DF8046023688DF8092001A8B5
:1023A0009847DBE700700040B80E002010B50368C6
:1023B000292B044604D9074940F2CD10FEF77AFCD8
:1023C00023681F2B83BF03F01F03236002484FF0D5
:1023D000A04010BD13B300000003005007B50190EA
:1023E00001A8FFF7E3FF019A01239340C0F80C35E1
:1023F00003B05DF804FB07B5019001A8FFF7D6FF15
:10240000019A01239340C0F8083503B05DF804FB3E
:1024100013B5144BD3F8182112B30022C3F81821B6
:10242000D3F81831104C0193019B236823B90F494D
:102430004FF42770FEF73EFCE07FFF2803D0A37F18
:102440005BB1FFF7CBFF002363772372D4E9003140
:10245000074802B0BDE810401847FFF7CCFFF2E78D
:1024600002B010BD00300240E80E002097C100000D
:10247000F00E00202DE9F743002406460F4600F534
:10248000A0754FF48038A1462B688BB1D6F8043381
:1024900008FA04F21A420BD0C5F800902B68019399
:1024A000019BA30003F5A07398B2D7E900319847C8
:1024B0000134042C05F10405E6D103B0BDE8F08336
:1024C00001490248FFF7D6BF0C0F002000800040F2
:1024D00001490248FFF7CEBF180F002000900040CE
:1024E000002382B0435043580193019B02B07047D0
:1024F0000A7B0346032A2CD8DFE802F024281C02BA
:102500008868154A904204D1D3F84C250869904256
:1025100009D1886840F2022290421AD1D3F84C25A2
:102520004969914215D000200622C3F80005C3F87E
:1025300000257047D3F84C2508699042F3D1D3F8B1
:102540003C25EDE7D3F84C250969EAE7D3F83C25AB
:10255000FAE70120704700BF00020400F0B50B68E5
:1025600087B005460C4623B9484940F28620FEF75D
:10257000A1FBD5F82431B3B14FF492712846FFF78F
:10258000AFFFD5F8043173B9A368C5F80833022347
:10259000A360A368C5F8043301232B626B6184F840
:1025A0002E3007B0F0BDD5F804316BB34FF4827113
:1025B000284604F10C07FFF793FF0FCF01AE0FC6BB
:1025C0003B68336094F82E303BB921462846FFF72C
:1025D0008FFF80F0010084F82E004FF4B071284680
:1025E000FFF77EFF4FF4AE71FFF77AFF94F83030BB
:1025F00013B194F82E30CBB10023C5F80032A3609C
:10260000234BC5F8083311E04FF4A4712846FFF7B7
:1026100067FF237B1BBB04F10C070FCF01AE0FC676
:102620003B68336094F83030002BE6D0D5F8C434E2
:10263000C5F8C4349A0724D413F0050F23D194F8B5
:102640002E309B00DBB28DF8003094F830300BB99F
:1026500084F82F30D4E9003168469847A1E74FF459
:102660000073C5F8003240F20223A36003F1CE7379
:10267000C5F80833A368C5F804330123AB602B62A7
:102680008FE70123DFE70223DDE700BFEDC1000094
:1026900002029C0101490248FFF760BF240F00209D
:1026A0000030004002494FF04020FFF757BF00BF05
:1026B000580F0020002382B0435043580193019BE0
:1026C00002B070470A4610B54FF48E71FFF7F2FF63
:1026D000136A9168C95C136A01331362C0F81C1550
:1026E00010BD08B502464FF492710068FFF7E2FF93
:1026F00010684FF48471FFF7DDFF136801221A6040
:1027000008BD000010B50368292B044604D9074909
:1027100040F2CD10FEF7CEFA23681F2B83BF03F0E3
:102720001F03236002484FF0A04010BD13B3000008
:102730000003005007B5019001A8FFF7E3FF019BDC
:1027400003F5E073022240F8232003B05DF804FB98
:1027500010B58B690A464FF4847123B9FFF7AAFFBD
:10276000D0F8183510BDFFF7A5FF536AD168D0F82F
:102770001805C854536A01335362F3E71FB50123A8
:102780008DF80030044BCDE90110D3E90012684602
:10279000904705B05DF804FB8C0F002030B54E4D1E
:1027A000D5F804339A0585B051D5D5F82431002BDE
:1027B0004DD04FF492712846FFF77CFF4FF4017320
:1027C000C5F80833454B93F829200AB901226A60FD
:1027D000414902228DF80020D1F88024C1F88024DC
:1027E00003929A690292DA6801920022C3E90622F2
:1027F0006846D3E9001290473748D0F81C315BB1E6
:10280000364A5169136A99424ED992F82830002B02
:102810004AD11146FFF756FF2F48D0F84431002B1C
:1028200057D04FF4A271FFF745FF2C4B93F82920A6
:102830000AB1012202609A69002A4AD0586AD9680E
:1028400000229A6105B0BDE83040FFF797BFD5F888
:1028500004335B07D0D5D5F80831002BCCD01F4C02
:102860001D482146FFF774FF636AA2699A42C3D1EB
:10287000E36953B1A3612369E168E3600023606AFF
:10288000E3616362FFF77AFFB6E794F829300BB98A
:1028900001236B60104B4FF40172C3F8082300232F
:1028A000606AE168A361EDE70B484FF48E71FFF7B2
:1028B00001FF5369002BAFD0516902910023916849
:1028C0008DF80030019153616846D2E900139847B2
:1028D000A2E705B030BD00BF002000408C0F0020F3
:1028E0002DE9F743054691460C4619B96B49AA20D4
:1028F000FEF7E0F995F80480694E2C2303FB08638A
:1029000093F82A30002B40F0C48066492868FFF70E
:1029100007FC0746002840F0BE8023685A1C13D0ED
:1029200001A80193FFF7EEFE019A01239340C0F83E
:1029300008352368019301A8FFF7E4FE019B03F526
:10294000E073032240F823206368581C09D001A8D3
:102950000193FFF7D7FE019B03F5E073002240F8D7
:1029600023202B68A269C3F82425217D637D2A6872
:102970000B43C2F86C35D4E900122B68C3F8142558
:10298000C3F80C15237D012B2AD1A368591C09D04B
:1029900001A80193FFF7B6FE019B03F5E073002247
:1029A00040F82320E3685A1C13D001A80193FFF7D5
:1029B000A9FE019A01239340C0F80835E36801930A
:1029C00001A8FFF79FFE019B03F5E073032240F887
:1029D0002320D4E902122B68C3F80825C3F8101588
:1029E0002C2303FB08F3F218C2F804902269F2507A
:1029F000B9F1000F39D0286894F81C902A4A4FF496
:102A00008E71FFF757FE28684FF4A271FFF752FE50
:102A10002B68C3F804232C68B9F1070F44F307347B
:102A200003D922496B20FEF745F9002CB6BF204B95
:102A300004F1604404F00F044FEA49195FFA89F980
:102A4000AABF04F5614403F8049084F800932B684E
:102A500043F30733002B08DB0122590903F01F035E
:102A600002FA03F3134A42F821302B680422C3F818
:102A700000252C2303FB08660023C6E9063386F8ED
:102A800029307361012386F82A30384603B0BDE847
:102A9000F0830827F9E71127F7E700BF3DC20000E0
:102AA0008C0F00209D2700008000020088C20000DB
:102AB00014ED00E000E100E02DE9F8430368067939
:102AC0002A4D0022C3F800252C2303FB065304469D
:102AD0005B68B3B10368264AC3F80823036843F36D
:102AE0000733002B0DDB5A09012103F01F03994026
:102AF00002F120031F4A42F82310BFF34F8FBFF3A8
:102B00006F8F23684FF0FF32D3F80C05D3F814957C
:102B1000D3F80875D3F81085C3F81425C3F80C252D
:102B200023689042C3F80825C3F8102501D0FFF7A9
:102B300001FEB9F1FF3F02D04846FFF7FBFDB8F1B7
:102B4000FF3F02D04046FFF7F5FD7B1C02D0384620
:102B5000FFF7F0FD2068FFF705FB2C2303FB06556C
:102B6000002385F82A306B60BDE8F8838C0F0020C5
:102B70008402020000E100E00279044B2C2101FBF9
:102B800002335869003818BF012070478C0F0020AD
:102B90002DE9F047DFF8C8A090F804902C2303FB40
:102BA00009A3064693F82A30012B0F46904604D01D
:102BB0002A494FF48C70FEF77DF827B9274940F277
:102BC0001910FEF777F8B8F1000F04D123494FF43C
:102BD0008D70FEF76FF83046FFF7CEFF05460028F0
:102BE00037D12C2404FB09A44FF48E71C4F814804F
:102BF000A760206284F828003068FFF75BFD336827
:102C000001229A6030682146FFF75CFD636813BBC0
:102C100030686569236A9D4211D83368D3F81C2156
:102C2000002AFBD00122DA6000202C2303FB09A339
:102C300000225A61BDE8F08794F828303BB9D0F8FB
:102C40001C31002BF8D02146FFF73CFDE2E70F20B6
:102C5000EBE71120EEE72846ECE700BF3DC200009D
:102C60008C0F00202DE9F041494C06792C2303FB01
:102C70000643054693F82A30012B8846174604D0B0
:102C800044494FF4B670FEF715F8B8F1000F04D1BF
:102C9000404940F26D10FEF70DF827B93D494FF459
:102CA000B770FEF707F82C2303FB0643596821B1E0
:102CB0002B684FF40172C3F808232C2303FB06434F
:102CC0009A6952B1DA69002A34D021B12B684FF4E5
:102CD0000172C3F8042311202AE09F61C3F80C801D
:102CE0005A6217462C2303FB0643DF6193F8293011
:102CF0001BB912B92846FFF7F4FC2C2707FB06473F
:102D000028687B68002B3DD14FF4A271FFF7D2FCFD
:102D10002868D0F82421D0F80811D0F8443119439C
:102D20000CD1002AF4D02C2303FB06439961032025
:102D3000BDE8F081C3F810800122D3E753EA02080E
:102D400013D13946FFF704FD7B6ABA699A42DFD88E
:102D5000C7F818802C2202FB06442B6894F829102F
:102D6000012269B11A600020E2E72C2101FB064133
:102D700000208861002ADAD1002BEBD00F20D7E7A2
:102D80005A60F0E74FF40173C0F80433EBE700BF7B
:102D90008C0F00203DC20000002382B043504358F6
:102DA0000193019B02B070471FB50123CDE90121BA
:102DB0008DF80030D0E900136846984705B05DF8FB
:102DC00004FB000010B50368292B044604D9074909
:102DD00040F2CD10FDF76EFF23681F2B83BF03F079
:102DE0001F03236002484FF0A04010BD13B3000042
:102DF0000003005007B5019001A8FFF7E3FF019B16
:102E000003F5E073022240F8232003B05DF804FBD1
:102E10007FB5D0F8246105460C46002E5CD04FF4F7
:102E20009271FFF7B9FF02238DF80030D0F880349B
:102E3000C0F880340393D0F83C350293E3680193E3
:102E40000023C4E906336846D4E900139847D5F84F
:102E500044317BB14FF4A2712846FFF79DFFA3696F
:102E600043B10023C4E90633E268D5F83C15204697
:102E7000FFF79AFFD5F82031ABB14FF49071284697
:102E8000FFF78AFF0123EB60636963B1D5F84C2536
:102E900002920023A2688DF8003063610192D4E9A8
:102EA000001368469847D5F858319BB14FF4AC7180
:102EB0002846FFF771FF636963B1D5F84C2502928C
:102EC0000023A2688DF8003063610192D4E90013F9
:102ED0006846984704B070BDD0F81031002BB6D0CA
:102EE0004FF48871FFF758FFD0F83C35A16999423B
:102EF000ADD1E369E26873B1D0F8003223F020036A
:102F0000C0F80032E369A3612369E360E66120460B
:102F1000FFF74AFF9BE7A361F9E700000149024878
:102F2000FFF776BFB80F002000200040014902489B
:102F3000FFF76EBFDC0F0020008002402DE9F74351
:102F4000054691460C4619B97249CF20FDF7B2FEED
:102F500095F80480704E242303FB086393F8203017
:102F6000002B40F0D3806D4B286853F82810FFF7F2
:102F7000D7F80746002840F0CB8023685A1C13D0AE
:102F800001A80193FFF71EFF019A01239340C0F8A7
:102F900008352368019301A8FFF714FF019B03F58F
:102FA000E073032240F823206368581C09D001A86D
:102FB0000193FFF707FF019B03F5E073002240F840
:102FC00023202B68A269C3F82425217D637D2A680C
:102FD0000B43C2F86C35D4E900122B68C3F80C150A
:102FE000C3F81425237D012B2AD1A368591C09D0CD
:102FF00001A80193FFF7E6FE019B03F5E0730022B1
:1030000040F82320E3685A1C13D001A80193FFF76E
:10301000D9FE019A01239340C0F80835E368019373
:1030200001A8FFF7CFFE019B03F5E073032240F8F0
:103030002320D4E902212B68C3F80815C3F8102512
:10304000242303FB08F3F218C2F804902269F2501B
:10305000B9F1000F48D0286894F81C90304A4FF41A
:103060008871FFF799FE28684FF49071FFF794FE7E
:1030700028684FF49271FFF78FFE28684FF4A27111
:10308000FFF78AFE28684FF4AC71FFF785FE2B68C6
:10309000C3F804232C68B9F1070F44F3073403D9AC
:1030A00020496B20FDF706FE002CB6BF1E4B04F135
:1030B000604404F00F044FEA49195FFA89F9AABF86
:1030C00004F5614403F8049084F800932B6843F3FB
:1030D0000733002B08DB0122590903F01F0302FA12
:1030E00003F3124A42F821302B680822C3F8002566
:1030F000242303FB08660023C6E90633736101231A
:1031000086F82030384603B0BDE8F0830827F9E799
:103110001127F7E7D0C20000B80F002078C50000E3
:103120001003420088C2000014ED00E000E100E05E
:103130002DE9F843364D0679242303FB0653044654
:103140005B68B3B10368334AC3F80823036843F3E9
:103150000733002B0DDB5A09012103F01F039940AF
:1031600002F120032C4A42F82310BFF34F8FBFF324
:103170006F8F2268D2F8003223F02003C2F80032A9
:10318000236801225A6020684FF4AC71FFF704FEF7
:103190002368DA602368D3F85821002AFBD0002284
:1031A000C3F8002523684FF0FF32D3F80C05D3F89D
:1031B0001495D3F80875D3F81085C3F80C25C3F817
:1031C000142523689042C3F80825C3F8102501D0C0
:1031D000FFF710FEB9F1FF3F02D04846FFF70AFEA5
:1031E000B8F1FF3F02D04046FFF704FE7B1C02D03F
:1031F0003846FFF7FFFD2068FEF7B4FF242303FBEA
:103200000655002385F820306B60BDE8F88300BFC9
:10321000B80F00201003420000E100E00279044BE7
:10322000242101FB02335869003818BF0120704780
:10323000B80F00202DE9F047394F90F804A024235F
:1032400003FB0A73054693F82030012B884691460C
:1032500004D0344940F22D10FDF72CFDB8F1000FD9
:1032600004D130494FF49770FDF724FDB9F1000FF8
:1032700004D12C4940F22F10FDF71CFD2B79012BB6
:1032800002D8B9F5803F04D326494FF49870FDF772
:1032900011FD08F06043B3F1005F3AD12846FFF713
:1032A000BDFF0446002836D1242606FB0A764FF4DB
:1032B0009071C6F81490C6F808802868FFF76CFD76
:1032C0004FF4AC712868FFF767FD2B687269B1682D
:1032D000C3F84415C3F848252B6801229A60736827
:1032E000DBB92B68D3F82021D3F858010243F9D079
:1032F00068B90122DA602A68D2F85831002BFBD075
:10330000242303FB0A7700237B61BDE8F0870F20AD
:10331000F6E71020F9E71120F7E72046F5E700BFB0
:10332000B80F0020D0C200002DE9F8434E4D90F8B0
:103330000480242303FB0853044693F82030012B18
:103340000F46164604D049494FF4C070FDF7B2FC51
:1033500027B9464940F28110FDF7ACFC26B9434934
:103360004FF4C170FDF7A6FC2379012B02D8B6F506
:10337000803F04D33D4940F28310FDF79BFC07F0EA
:103380006043B3F1005F6CD1242303FB08535968F9
:1033900021B123684FF40472C3F80823242303FBEC
:1033A00008539A695AB1DA69002A3CD021B12368DE
:1033B0004FF40472C3F804231120BDE8F8839E6122
:1033C000DF609146242303FB08584FF48871C8F846
:1033D0001C202068FFF7E0FC20684FF4A271FFF783
:1033E000DBFC2368C3F83475C3F838652368B9F18A
:1033F000000F1DD101221A6023792268242101FBCC
:103400000351496839BBD2F81011D2F84441D2F8BF
:103410002401214313D10028F5D0242202FB0353B9
:1034200003209961C9E71F6132464FF00109C9E7DE
:10343000D3F8002242F02002C3F80022DCE7242265
:1034400002FB03550023984218BF03209C42AB6146
:1034500018BF0F20B1E74FF40473C2F80433002003
:10346000ABE71020A9E700BFB80F0020D0C20000D2
:10347000BFF34F8F0549064BCA6802F4E06213435D
:10348000CB60BFF34F8F00BFFDE700BF00ED00E052
:103490000400FA054FF08053D3F830210D2A03BF02
:1034A000D3F83401B0FA80F04009002070470000E2
:1034B00008B5FFF7EFFF40B14FF080430022C3F89B
:1034C0000C21C3F81021C3F83825FFF7E3FF0028CB
:1034D00046D04FF08052584BD2F80414C3F8201550
:1034E000D2F80814C3F82415D2F80C14C3F8281520
:1034F000D2F81014C3F82C15D2F81414C3F83015F0
:10350000D2F81814C3F83415D2F81C14C3F84015B7
:10351000D2F82014C3F84415D2F82414C3F848157F
:10352000D2F82814C3F84C15D2F82C14C3F850154F
:10353000D2F83014C3F85415D2F83414C3F8601517
:10354000D2F83814C3F86415D2F83C14C3F86815DF
:10355000D2F84014C3F86C15D2F84424C3F870258F
:10356000FFF798FF48B14FF08043D3F80024D1070C
:1035700044BF6FF00102C3F80024304AD2F888300B
:1035800043F47003C2F88830BFF34F8FBFF36F8FDF
:103590004FF01023D3F80C22D2071DD5284B01225F
:1035A000C3F80425D3F80024002AFBD04FF01022E2
:1035B000D2F80C3223F00103C2F80C32204BD3F8BE
:1035C0000024002AFBD00022C3F80425D3F80024ED
:1035D000002AFBD0FFF74CFFD3F80022002A03DBC0
:1035E000D3F80432002B22DA154B0122C3F804254C
:1035F000D3F80024002AFBD04FF010221221C2F889
:103600000012D3F80024002AFBD04FF0102312221E
:10361000C3F804220A4BD3F80024002AFBD000226E
:10362000C3F80425D3F80024002AFBD0D2E7054BC9
:10363000054A1A6008BD00BF00C0004000ED00E070
:1036400000E00140240000200090D0030649074A12
:10365000074B9B1A03DD043BC858D050FBDCFFF737
:1036600027FFFCF717FE000010CA00000000002032
:103670000C070020FEE7FEE7FEE7FEE7FEE7FEE7B9
:10368000FEE7FEE7FEE7FEE708B50021044600F08E
:103690006DFB034B1B6803B19847204607F08AF97E
:1036A000381100200FB400B5074983B004AB086897
:1036B00053F8042B8168019300F0E6FF03B05DF836
:1036C00004EB04B0704700BF34000020B1FA81F26F
:1036D00052094FF48063520000F000B82DE9F04128
:1036E000664CD4F8008084B004460E4617461D464A
:1036F000B8F1000F04D0D8F83430002B00F0A680C9
:10370000022F05D0012F00F2A580002DC0F2A2806B
:10371000636EDB073DD52146404603F057FB216B26
:1037200041B104F14003994202D0404600F0E0FB71
:1037300000232363B4F90C3000221906A2616260F1
:1037400057D423F44A6323F00303022FA3815DD0EF
:1037500003AB02AA2146404603F0FEF9A3891843B1
:10376000A081EDB1EEB1D8F8343043B3029AB4F988
:103770000C30AA421CBF43F40063A381012F22D066
:103780001807C4E90465266027D5D90753D4A56076
:1037900025E0A3899805BED4A06D00F0B9F9BAE779
:1037A000029D284600F09CFC0646002855D0A389BF
:1037B00043F08003A381D8F83430002BD6D14046A3
:1037C00000F002F9D2E743F00102C4E9046512B245
:1037D00026601E07A2812FD413460022A260626ECB
:1037E000D20701D49B052DD50025284604B0BDE89D
:1037F000F0812169404600F07BFBB4F90C3023F4E2
:103800004A6323F00303022FA381A1D1002543F0D3
:103810000201A181002104F14302A1600121C4E958
:1038200004212260626ED207DFD49F05DDD4A06D33
:1038300000F070F9D9E71A4600236D42A360A56134
:103840001346CCE7A06D00F065F9CDE7404600F0E7
:10385000BBF855E74FF0FF35C7E7029BAB4208D0F6
:103860001846019300F03CFC019B06461D460028CB
:103870009DD1B4F90C304FF0FF35C8E7340000207B
:10388000024A0349034803F0DDB800BF28000020C6
:10389000D96B0000380000200C4B4168994210B5EC
:1038A000044601D003F098F9A168094B994202D06F
:1038B000204603F091F9E168064B994204D0204676
:1038C000BDE8104003F088B910BD00BF0010002013
:1038D00068100020D01000202DE9F843314A324C06
:1038E0003249DFF8DC90DFF8DC80314F11600025D1
:1038F00004232946082204F15C00C4E903352D4E57
:10390000A560C4E90055C4E90555656600F086F870
:1039100004F15800C4E90749C4E90987E66200F0E8
:10392000F3F82946244B6367082204F1C400C4E974
:103930001A55C4E91E552567C4F8CC50C4F8805008
:1039400000F06CF804F1680304F1C000C4F884309E
:10395000C4E92298C4E9247600F0D6F8174BC4F8DD
:10396000DC30294604F596700822C4E93455C4E9D0
:103970003855C4F8D850C4F83451C4F8E85000F0B1
:103980004DF804F1D003C4E93D87C4F8F09004F584
:103990009470C4F8FC60C4F8EC30BDE8F84300F063
:1039A000B3B800BF3811002000100020813800009B
:1039B000856E0000A96E00000900010012000200DF
:1039C000216E0000456E000010B504460A4800F064
:1039D0009FF8636B23B9094B094A1B68626323B1E3
:1039E000BDE81040044800F095B8FFF775FFBDE84A
:1039F0001040014800F08EB844110020381100201A
:103A000099380000014800F083B800BF441100203D
:103A1000014800F07FB800BF44110020830730B593
:103A200046D08418844604E003F8011B9D0704D0A7
:103A30009C46A4456346F7D130BD013A0244A2EB4F
:103A40000C02032A29D9CCB204EB04240F2A04EB7C
:103A500004442FD9A2F1100C2CF00F0C03F1100527
:103A6000AC44C3E90044C3E9024410336345F8D1D0
:103A700012F00C0F02F00F0E18D02EF0030C9C4425
:103A8000AEF104051A4642F8044B6245FBD125F01D
:103A9000030404330EF003022344002ACCD0C9B23D
:103AA0001A4403F8011B9342FBD130BD7246F4E780
:103AB0000346C6E79646E0E770B50F4B0F4DAB42A5
:103AC000A3EB050607D0B610002455F8043B0134DB
:103AD0009847A642F9D807F003FC094D094B5E1B35
:103AE000AB424FEAA60606D0002455F8043B013449
:103AF0009847A642F9D870BDFC060020FC060020BD
:103B0000FC06002008070020704700BF704700BF78
:103B1000704700BF704700BF844641EA000313F0BE
:103B200003036DD1403A41D351F8043B40F8043BC4
:103B300051F8043B40F8043B51F8043B40F8043B87
:103B400051F8043B40F8043B51F8043B40F8043B77
:103B500051F8043B40F8043B51F8043B40F8043B67
:103B600051F8043B40F8043B51F8043B40F8043B57
:103B700051F8043B40F8043B51F8043B40F8043B47
:103B800051F8043B40F8043B51F8043B40F8043B37
:103B900051F8043B40F8043B51F8043B40F8043B27
:103BA00051F8043B40F8043B403ABDD2303211D3C7
:103BB00051F8043B40F8043B51F8043B40F8043B07
:103BC00051F8043B40F8043B51F8043B40F8043BF7
:103BD000103AEDD20C3205D351F8043B40F8043BC7
:103BE000043AF9D2043208D0D2071CBF11F8013BC5
:103BF00000F8013B01D30B8803806046704700BF8B
:103C0000082A13D38B078DD010F003038AD0C3F199
:103C10000403D21ADB071CBF11F8013B00F8013B7B
:103C200080D331F8023B20F8023B7BE7043AD9D33A
:103C3000013A11F8013B00F8013BF9D20B7803700F
:103C40004B7843708B7883706046704700000000AB
:103C50000000000000000000000000000000000064
:103C60000000000000000000000000000000000054
:103C70000000000000000000000000000000000044
:103C800030B490F800F020F007016FF0000C10F055
:103C9000070491F820F040F048804FF000046FF0E6
:103CA0000700D1E9002391F840F000F1080082FA02
:103CB0004CF2A4FA8CF283FA4CF3A2FA8CF34BBBCD
:103CC000D1E9022382FA4CF200F10800A4FA8CF246
:103CD00083FA4CF3A2FA8CF3E3B9D1E9042382FA14
:103CE0004CF200F10800A4FA8CF283FA4CF3A2FA29
:103CF0008CF37BB9D1E9062301F1200182FA4CF261
:103D000000F10800A4FA8CF283FA4CF3A2FA8CF3C7
:103D1000002BC6D0002A04BF04301A4612BAB2FAE9
:103D200082F200EBD20030BC7047D1E9002304F0EE
:103D30000305C4F100004FEAC50514F0040F91F823
:103D400040F00CFA05F562EA05021CBF63EA0503C0
:103D500062464FF00004AAE7024B13B1024800F09C
:103D600065B8704700000000617100002DE9F04F58
:103D70002C4B2D4F83B082461868CDF804A08B469B
:103D8000FFF7C6FE3E68AEB14FF000094FF00108E4
:103D90007468651E0ED4013406EB8404BBF1000F79
:103DA0000FD0D4F800315B450BD0013D6A1CA4F163
:103DB0000404F6D11B4B186803B0BDE8F04FFFF7C1
:103DC000A9BE73682268013BAB420CBF7560C4F8A2
:103DD000009072B1D6F88811D6F804A008FA05F35D
:103DE0000B420CD1904773683A68534513D1B242E5
:103DF00011D1013D6B1CA4F10404CFD1DAE7D6F850
:103E00008C01D4F88010034209D10198904773685F
:103E10003A685345EBD0002ACCD01646B8E708469E
:103E20009047E0E778010020481100200023014678
:103E30001A46184603F02EBA2DE9F8430646082024
:103E4000894603F07FF9DFF8A4800546304602F08A
:103E5000EDFDD8F808305F6827F00307A7F11104DB
:103E6000A4EB09042C44B4FBF5F4013C05FB04F479
:103E7000A54208DC0021304603F03CF9D8F80830B0
:103E80003B44984205D0304602F0D6FD0020BDE804
:103E9000F8836142304603F02DF901300FD0114A0A
:103EA000D8F808303F1B47F001075F6013683046C1
:103EB0001B1B136002F0C0FD0120BDE8F883002148
:103EC000304603F017F9D8F80820831A0F2BDADDF3
:103ED00043F001035360044B02491B68C01A086099
:103EE000D1E700BF4C1100207C0100208801002098
:103EF00000295BD0F8B50C46074602F097FD54F850
:103F000004CC744DA4F108022CF00103D118A86868
:103F10004E68884226F003060CF0010E7ED0881908
:103F20004E60406800F00100BEF1000F2FD154F840
:103F3000084C121B2344946805F1080C644562D0B8
:103F4000D2F80CE0C4F80CE0CEF8084000287FD08E
:103F500043F0010050600B60B3F5007F2FD2D90809
:103F600068685C090131012309B2A34003436B6017
:103F700055F83100906005EBC103083BD36045F86C
:103F80003120C2603846BDE8F84002F055BD70B936
:103F9000334405F1080C8868604543F0010471D092
:103FA000C968C16088605460D350D5E770474CF051
:103FB0000101B3F5007F44F8041CD350CFD3B3F50F
:103FC000206F4FEA532045D2980900F1390109B218
:103FD00000F13804C900681869580838884203D1CC
:103FE00057E08968884204D04C6824F003049C425E
:103FF000F7D8C868C2E9021082603846CA60BDE8D6
:10400000F84002F019BD88BB1E44D1E90213CB6011
:10401000996046F0010353609651B3E71E44BEF128
:10402000000F07D154F8083CD21A1E44D2E90213FB
:10403000CB60996046F001035360274BAA601B6870
:10404000B3429FD8254B38461968FFF7F5FE99E72C
:104050003344A0E714280ED9542821D8180B00F1B6
:104060006F0109B200F16E04C900B4E743F001002A
:1040700050600B6086E700F15C0109B200F15B045F
:10408000C900A8E7C5E90422C2E902CC5460D350B4
:1040900078E76E68A4100123A34033436B60A9E75F
:1040A000B0F5AA7F07D8D80B00F1780109B200F16A
:1040B0007704C9008FE740F25451884206D8980C23
:1040C00000F17D0100F17C04C90084E74FF47E71AA
:1040D0007E2480E788010020800100207C110020E0
:1040E000024B0146186800F003B800BF34000020FE
:1040F0002DE9F04F01F10B05162D83B0064623D8AC
:10410000102900F2B48002F091FC1025182302203F
:10411000B84F3B44A3F108025C68944200F064810C
:104120006368E268A16823F00303CA602344304651
:1041300091605A6842F001025A6002F07DFC083436
:10414000204603B0BDE8F08F35F0070500F18F8001
:10415000A94200F28C8002F069FCB5F5FC7FC0F04A
:10416000B8815FEA552E00F08980BEF1040F00F29D
:1041700070814FEA951E0EF1390003B20EF1380E30
:10418000DB009C4F3B44A3F1080C5C68A44507D1BD
:104190000DE0002AE16880F221818C4507D00C46B1
:1041A000636823F003035A1B0F2AF2DD7046DFF821
:1041B0005C823C69444500F0FE80636823F0030C98
:1041C000ACEB05030F2B00F38981002BC7E90488B2
:1041D00080F27381BCF5007FD7F804E080F018818D
:1041E0004FEADC03013319B24FEA5C1C012303FAE6
:1041F0000CF357F83120A2604EEA030E07EBC1031F
:10420000083BE360C7F804E047F83140D46083100E
:104210004FF0010C0CFA03FCF44535D81CEA0E0FE4
:1042200008D120F003004FEA4C0C1CEA0E0F00F1FD
:104230000400F8D007EBC00AD6468146DEF80C3001
:104240000BE0596821F003014A1B0F2A1C46DB686A
:1042500000F30F81002A80F223819E45F1D109F1FC
:10426000010919F0030F0EF1080EE7D161E10C23EB
:1042700033600024204603B0BDE8F08F4FF4007394
:1042800040204FF03F0E7CE7BC68636823F00309D1
:10429000A94504D3A9EB05030F2B00F38F80564BE0
:1042A0001B68082003F1100804EB0903009302F0D7
:1042B00049FF524A13680133A844834605D008F1E8
:1042C000FF388044434203EA08084146304602F082
:1042D00011FFB0F1FF3F494A824600F01B8104EB19
:1042E0000903834200F21481454B186840440BF1E6
:1042F000FF3C186000F072811168013100F07A8192
:1043000004EB0902AAEB020202441A601AF0070247
:10431000CDE9002300F03281C2F108029244D0447A
:1043200008EA0C015A44521A02EA0C0B594630466C
:1043300002F0E0FE421C019B00F07981A0EB0A0034
:1043400000EB0B081868C7F808A048F001025844B1
:10435000BC42CAF80420186016D0B9F10F0F40F221
:104360004C816168A9F10C0222F0070201F0010101
:10437000114361604FF0050CA1180F2AC1E901CC6F
:1043800000F25D81DAF804201E4B1968814238BFC3
:1043900018601D4B1968814238BF1860544622F0DE
:1043A0000308A845A8EB050301D30F2B06DC304614
:1043B00002F042FB5DE7D7F804E028E7621943F01A
:1043C000010345F0010565603046BA60536002F0B4
:1043D00033FB0834204603B0BDE8F08FA2682344C5
:1043E000D16030468A60A4E6DC68A3427FF498AED0
:1043F0000230DCE6880100207C1100207C010020D6
:104400004C11002078110020741100209001002030
:10441000BCF5206F4FEA5C2272D3142A00F2C180EF
:1044200002F15C031BB25B32DB00F918FB58083960
:10443000994203D198E09B68994204D05A6822F0CF
:1044400003026245F7D8D968C4E902318C60DC60A8
:10445000DDE6BEF1140F60D9BEF1540F00F2AB805F
:104460004FEA153E0EF16F0003B20EF16E0EDB0047
:1044700087E6D4F808C03046661945F00105656046
:10448000CCF80C30C3F808C042F00103C7E9046659
:10449000C6E902887360625002F0CEFA0834E9E699
:1044A000214430464A6842F001024A6054F8082F1D
:1044B000D3609A6002F0C0FADCE6A4443046DCF82F
:1044C000043043F00103CCF8043002F0B5FA0834AC
:1044D000D0E6E808431C1BB2DB0019E6621943F082
:1044E000010145F0010565603046C7E90422C2E9D3
:1044F0000288516044F80C3002F09EFA0834B9E6A4
:104500004FEA9C1202F139031BB23832DB008CE710
:10451000BC425CD0BC68626841E70EF15C0003B24B
:104520000EF15B0EDB002CE65AF80839534540F0DB
:10453000A68010F0030F00F1FF30F5D17B6823EA6D
:104540000C037B604FEA4C0C9C453FF69DAEBCF1E2
:10455000000F04D198E64FEA4C0C09F104091CEA5B
:10456000030FF8D0484665E692104FF0010C0CFAA4
:1045700002F24EEA020EC7F804E065E70AEB080211
:1045800002EA0C02ABEB020202EA0C0B594630467F
:1045900002F0B0FD431C019B7FF4D0AEDDF800B00B
:1045A000D0E6542A2DD84FEA1C3202F16F031BB219
:1045B0006E32DB0039E7BEF5AA7F2DD84FEAD53E33
:1045C0000EF1780003B20EF1770EDB00D9E52D4B2A
:1045D000186840440BF1FF3C18608DE61AEA0C0F96
:1045E0007FF48AAED7F808A0C84448F00102CAF8A0
:1045F0000420C9E6C2F800A088E60123CAF8043006
:10460000D5E6B2F5AA7F25D84FEADC3202F178036D
:104610001BB27732DB0008E740F254539E4524D8A2
:10462000AB0C03F17D0003F17C0EC300A9E5009AF9
:10463000083A9044A8EB0A084FF0000B82E6304697
:1046400004F108010093FFF753FC009BD7F808A082
:10465000186897E640F254539A420CD84FEA9C42AD
:1046600002F17D03DB007C32DFE64FF47E737F20B6
:104670004FF07E0E85E54FF47E737E22D5E67B6893
:1046800060E700BF4C1100202DE9F04FD7B016466F
:1046900004911C4683460A9302F0C2FC03681393FC
:1046A0001846FFF7EDFA08221290002126A8FFF71E
:1046B000B5F9BBF1000F04D0DBF83430002B01F06A
:1046C000D981049B5A6EB3F90C30D70740F1C385EA
:1046D0009D0400F17787049943F4005322F40052BB
:1046E0008B814A661BB21D0740F18F85049A1269BF
:1046F000002A00F08A8503F01A020A2A00F0948545
:104700009FED937B00239E46CDE916EE8DED0E7B4B
:10471000CDE92B332DAB2A931C46CDF850E0CDF8D4
:1047200054E0CDF814E0CDF834E037463D468A4BEE
:10473000D3F8E46002F06EFC26AA0346009222A998
:104740002A465846B047002800F0D583C0F2CB83F4
:10475000229A252A034601D01D44E8E7B5EB070855
:10476000064640F0CC8300234FF0FF328DF87F30B7
:104770009A46069301352B78039201359946A9F1A3
:1047800020035A2B5CD8DFE813F054025B005B0077
:1047900050025B005B005B0033025B005B00AB011F
:1047A000BA015B00B60116025B001202D100D10013
:1047B000D100D100D100D100D100D100D1005B00E7
:1047C0005B005B005B005B005B005B00E9005B0083
:1047D0004601C602E900E900E9005B005B005B00FE
:1047E0005B000E025B005B00BF015B005B005B00D7
:1047F00076015B001D035B005B0017085B005B003C
:104800005B005B005B005B005B005B00E9005B0042
:1048100046013101E900E900E900BC0231012D0146
:104820005B00B2025B007802650287022D015B002B
:1048300076012B01E6025B005B0087085B002B0121
:10484000B9F1000F00F06F830023CDE90B33012293
:104850008DF8F4908DF87F300793089203931193AD
:104860003DAF02922C9E10961AF0840300F0F58062
:104870009DF87F2002B32B984FF0000801300122F1
:104880000136626007280DF17F02CDE92B06226018
:1048900000F3F2840834B8F1000F0DD02B980130EA
:1048A00020AA0236226007284FF00202CDE92B062B
:1048B000626000F3EF840834802B00F09583039B43
:1048C000089AA3EB0208B8F1000F00F3D2831AF4A0
:1048D000807F40F03283089B63601E442B9B2760DF
:1048E0000133072B2C962B9300F32C8408341AF0F9
:1048F000040F05D0069B029A9F1A002F00F3D8845C
:10490000DDE9053202998A42ACBF9B185B1805931A
:10491000002E40F0ED8300232B93079B1BB10799DA
:104920005846FFF7E5FA2DAC2F46FFE6A9F1300314
:10493000002215F8019B02EB820203EB4202A9F16F
:104940003003092BF5D9069219E700BFAFF30080B9
:104950000000000000000000900500200A9B0733C3
:1049600023F00703B3EC027B8DED0E7B0A930F9BC4
:104970008DED1A7A23F000431B93DDE91A01B24B47
:104980004FF0FF3206F06EFC002840F0BB86DDE9F8
:104990001A01AD4B4FF0FF3206F046FC06460028E8
:1049A00040F0B086DDE90E01002200232AF0800AE3
:1049B00006F030FC002841F0FB839DF87F30B9F110
:1049C000470FCCBFA14FA24F002B41F0948603228A
:1049D000CDE90B330793089203931193029241E7B9
:1049E0002B78CAE62B784AF0200AC6E61AF0200F88
:1049F00040F063860A9A1AF0100F52F8046B41F0E7
:104A0000A2871AF0400F0A9201F02E8146F3C038B7
:104A1000434636B28FE10A9BB9F1430F03F1040616
:104A200000F087871AF0100F40F083870A9B1B68FD
:104A30008DF8F4300123029308933DAF0023CDE9B4
:104A40000B330A968DF87F302C9E079303931193B6
:104A50001AF0840310967FF40BAF069A0298A2EB2B
:104A60000008B8F1000F00F30D859DF87F20002AA3
:104A70003FF425AFFFE6DDF8288058F8047B0023DB
:104A80008DF87F30002F00F04387B9F1530F01F00C
:104A90000C801AF010030B9341F00780039B002B4E
:104AA000C1F23C821A460B99384602F071FB9DF820
:104AB0007F300790002801F08986079AD21B089260
:104AC00022EAE27202920BB1013202920B9BCDF804
:104AD0002880039311930C9307934FF07309C1E659
:104AE0000A9B53F8042B0692002A80F28085069ACE
:104AF0000A93524206922B784AF0040A3DE62B2391
:104B00008DF87F302B7838E61AF0200F4AF010002D
:104B100000F0F0850A9B073323F007031A46596813
:104B200052F8083B0A9200228DF87F20039A002A4F
:104B300018DB53EA010220F4906A15D1039A9AB95E
:104B400010F001031A46029300F08B8730238DF892
:104B50005731039B0892CDE90B33119307930DF264
:104B600057177FE620F4806A56AF03F00702DB0890
:104B700043EA4173C908303253EA0106384607F860
:104B8000012DF2D11AF001030B9340F063840399D5
:104B9000119356AAD21B9142B8BF114608920291B6
:104BA0000C9307935EE62B784AF0080AE5E52B782C
:104BB0004AF0800AE1E5294611F8019BB9F12A0F74
:104BC00001F09486A9F13003092B98BF002201F26D
:104BD0007F8411F8019B02EB820203EB4202A9F1F0
:104BE0003003092BF5D942EAE27303930D46C6E57B
:104BF000584602F015FA436815931846FFF740F837
:104C000017900646584602F00BFA82682B781692E7
:104C1000002E3FF4B2AD002A3FF4AFAD1278002A67
:104C20003FF4ABAD4AF4806AA7E52B784AF0010A5D
:104C3000A3E59DF87F202B78002A7FF49EAD2022EB
:104C40008DF87F2099E500BFFFFFEF7F88C6000049
:104C500084C600001AF0200F40F0F6840A9A1AF079
:104C6000100152F8043B41F07C861AF0400001F03C
:104C70000C809BB20A92504655E70A9A1AF0200F10
:104C800002F1040300F0E384126805991160C9176A
:104C900051600A932F4649E50A9A039F52F8040B84
:104CA000002147F630038F42ADF880308DF87F1039
:104CB0000346C0F2F3852AF0800646F0020A002877
:104CC00040F0EE85002F01F033800A92302301225C
:104CD00002970C908DF857314FF078090DF2571765
:104CE000119008920B908446079000F0BABD2B7883
:104CF0006C2B03BF6B784AF0200A01354AF0100A8A
:104D00003BE52B78682B03BF6B784AF4007A0135BA
:104D10004AF0400A31E51AF0200F4AF0100300F083
:104D2000CF840A9A073222F007029A46536852F853
:104D3000086B0A929846002BC0F2CE84039A002A90
:104D400020DB56EA08032AF0800A1BD1002A00F073
:104D5000A58730231DE01AF0200F00F08A84514609
:104D60000A9B073323F007031A46D3F8048052F84E
:104D7000086B0A9200238DF87F30039B002B80F292
:104D80002A848A460A2E78F1000337D206F13003CE
:104D9000DBB2039A8DF85731012AB8BF0122029283
:104DA0009DF87F30012208920DF25717002B01F079
:104DB000B585029B013302930023CDE90B330793A2
:104DC00011934FE51AF0200F4AF01001C8D10A9B49
:104DD0001A1D0A9B03981B684FF0000840458DF888
:104DE0007F801E46C1F2E08121F0800A002B00F096
:104DF00057840A2E78F100030A92C7D30AF480631D
:104E00000022CDE907590294DDF8589056A994463E
:104E10001C4626E016EB0803B24843F10003A0FB52
:104E2000032020F0030202EB90029B1AF31AAD4814
:104E30004FF0CC32B646454602FB03F268F100085B
:104E400000FB0822A3FB0063BEF10A0F13444FEAE4
:104E5000560675F10005394646EAC3764FEA53080F
:104E60002DD3A04D16EB080343F10003A5FB03204F
:104E700020F0030202EB90029B1AF31AA3FB053207
:104E800068F100005B0805FB002243EAC27303EBF4
:104E90008303A6EB430330330CF1010C01F8013C12
:104EA0004F1E002CB6D099F800306345B2D1BCF14A
:104EB000FF0FAFD00A2E78F1000381F0A58156AB29
:104EC0000399029CCDF85890DB1B1A469142B8BF5B
:104ED0001146DDF82090079D0893CDF834C09DF869
:104EE0007F30029162E70822002126A8FEF796FD96
:104EF00001231D441BE4B5EB0708064613D0DDF87B
:104F0000ACE02C9B0EF101024344072AC4E900786F
:104F10002C932B9200F370810834059B4344059336
:104F2000002E7FF420AC2C9B002B41F00580049BCD
:104F30000022B3F90C302B92EBE0B9F1650F40F38E
:104F40000C81DDE90E010022002306F059F900284A
:104F500000F0FE812B9B644A22600133013601225E
:104F6000072B2C962B93626000F393850834219BCA
:104F70000D9A934280F22A83129B139A1E44C4E92D
:104F800000232B9B2C960133072B2B9300F3B48427
:104F900008340D9B5F1E002F7FF7A9AC102F2B9BB1
:104FA00041F368845149DDF81090109132464FF07A
:104FB00010080E4604E00834103F102F40F3B7806D
:104FC00001331032072BC4E90068CDE92B32F2DD42
:104FD0002AAA4946584601F0EFFD002840F090808B
:104FE000DDE92B322DACE7E7069B029AA3EB020822
:104FF000B8F1000F7FF763AC3C4B2B9A1093B8F1DC
:10500000100F29DD21463046384C2E461023049DD2
:1050100006E0A8F11008B8F1100F01F1080118DD41
:1050200001321030072AC1E90043CDE92B20F0DD21
:105030002AAA2946584601F0BFFD002860D1A8F1F0
:105040001008B8F1100FDDE92B202DA94FF0100347
:10505000E6DC35460C4606460132109B236046448A
:10506000072ACDE92B26C4F8048000F339840834DC
:1050700025E41E4B2B9A1093B8F1100F24DD214626
:105080001023049C06E0A8F11008B8F1100F01F1FC
:10509000080118DD013215481036072AC1E900035E
:1050A000CDE92B26EFDD2AAA2146584601F084FDE2
:1050B00030BBA8F11008B8F1100FDDE92B262DA99F
:1050C0004FF01003E6DC0C460132109B236046448F
:1050D000072ACDE92B26C4F8048000F36782083440
:1050E000FFF7F5BBCDCCCCCCC4C600003CC800005B
:1050F00004992AAA584601F05FFD00283FF40BAC42
:10510000079B1BB107995846FEF7F2FE049BB3F9C3
:105110000C30049A526ED00702D49A0540F1838471
:105120005B0600F11181059857B0BDE8F08F164677
:105130000133109A22603E44072B6760CDE92B367D
:105140007FF7D4AB04992AAA584601F035FD002810
:10515000D6D12C9E2DACFFF7CABB2B9B03F10108C7
:105160000D9B012B06F1010604F1080940F3D481DF
:105170000123B8F1070FCDE92B862760636000F3A8
:105180001F84129B139A08F101081E44B8F1070FFF
:10519000C9E90023CDE92B8600F3208409F1080931
:1051A0000D9BDDE90E015C1E0022002306F028F8AD
:1051B000002840F0CB8108F1010801372644B8F1FE
:1051C000070FCDE92B86C9F80070C9F8044000F339
:1051D000B08109F10809149AC9F8042008F1010303
:1051E0001644072B24AACDE92B36C9F80020A9DCE8
:1051F00009F10804FFF77BBB04992AAA584601F07D
:10520000DBFC002882D12DAC87E6049D5846294658
:1052100001F04EFE002841F0E782B5F90C3003F0B2
:105220001A020A2A7FF46CAA0499B1F90E20002A06
:10523000FFF666AA4A6ED20702D49B0540F1938618
:10524000049923463246584601F0AEFB0590059876
:1052500057B0BDE8F08F990567D59F047FF53BAA4D
:1052600095047FF540AA049B9B899E056CD4049B02
:10527000986DFEF74FFC67E0049910932AAA5846F0
:1052800001F09AFC00287FF43BAF2C9E109B2DACC4
:10529000FFF701BB049910932AAA584601F08CFC31
:1052A00000287FF42DAF2C9E109B2DACFFF704BB84
:1052B000BC4A2B9B1092102F22DDAA46DDF81090DD
:1052C0004FF01008154604E0103F102F04F10804B9
:1052D00015DD01331036072BC4E90058CDE92B3614
:1052E000F2DD2AAA4946584601F066FC00287FF400
:1052F00007AF103F102FDDE92B362DACE9DC55460A
:105300000133109A3E44072BC4E90027CDE92B3620
:105310007FF7F6AA04992AAA584601F04DFC002806
:105320007FF4EEAE2C9EFFF7EBBA049DA86DFEF75E
:10533000EFFBB5F90C306A6E98047FF5CCA99104A7
:105340007FF5D1A9D7078ED54FF0FF330593EAE655
:105350002199002940F34F810B9B0D9A9342A8BFDE
:105360001346002B99460ADD1E44C4E900732B9BAB
:105370002C960133072B2B9301F3518008340B9BA0
:10538000B9F1000FA8BFA3EB0903002B984600F367
:1053900016840B9B1AF4806F3B4440F04B86219A95
:1053A0000D998A4203DB1AF0010F00F0CE841299A6
:1053B00013980E44C4E900012B992C96013107295A
:1053C0002B9101F3388008340D9907EB0108A8EB05
:1053D00003088F1AB845A8BFB846B8F1000F0BDD17
:1053E00023602B9BC4F8048001334644072B2C9682
:1053F0002B9301F372800834B8F1000FA8BFA7EB1C
:105400000807002F7FF773AA102F2B9B41F33282DE
:105410006549DDF81090109132464FF010080E46A5
:1054200004E00834103F102F7FF781AE01331032B3
:10543000072BC4E90068CDE92B32F2DD2AAA4946E0
:10544000584601F0B9FB00287FF45AAEDDE92B3253
:105450002DACE7E7302A00F033823023039907F8B8
:10546000013C023856AB1B1A99424FF00002B8BFFC
:105470001946CDE90B220792089307460291119233
:10548000FFF7F0B9DDF8ACE0464810991090B8F19C
:10549000100F724628DDCDE91C532046414D049C77
:1054A000102606E0A8F11008B8F1100F00F108006E
:1054B00017DD01321031072AC0E90056CDE92B2152
:1054C000F0DD2AAA2146584601F076FB00287FF439
:1054D00017AEA8F11008B8F1100FDDE92B212DA8A7
:1054E000E7DCDDE91C53044610982060501C08EBF3
:1054F00001060728CDE92B06C4F8048000F39B823F
:105500009DF87F200834002A40F09A80002B3FF459
:10551000D6A91346FFF7C3B91AF0010F7FF428AEDE
:105520000123B8F1070FCDE92B86276063607FF771
:1055300052AE04992AAA584601F03EFB00287FF497
:10554000DFADDDE92B860DF1B40944E60D9B012B9F
:105550007FF741AE112B41F3F2811349109132468E
:1055600043461027DDF810800E4605E009F10809D2
:10557000103C102C40F3518301331032072BC9E942
:105580000067CDE92B32F1DD2AAA4146584601F0E9
:1055900013FB00287FF4B4ADDDE92B320DF1B40923
:1055A000E6E700BF4CC800003CC8000004992AAAE6
:1055B000584601F001FB00287FF4A2AD2C9E2DACD3
:1055C000FFF785B990047FF58EA8BDE61AF0010FAC
:1055D0003FF48DA9D0E456EA080321F0800A7FF455
:1055E000D1AB039B002B5FD00026FFF7CFBB0A9304
:1055F0002B78FFF7C2B82B9BAE4A226001330136ED
:105600000122072B2C962B93626000F34686083408
:10561000002940F0AD820D9A0AF0010313433FF4D4
:1056200066A9129B139A1E44C4E900232B9B2C9657
:105630000133072B2B9300F3898404F10802A8E2BD
:1056400098460023FFF71AB95046FFF763BA1AF0DD
:10565000100F40F085821AF0400F40F08D831AF44D
:10566000007F00F07D820A9A059912681170FFF799
:1056700010BB0A9A1AF0100852F8043B41F07881E6
:105680001AF0400100F0DA829EB2039B8DF87F8011
:10569000002BFFF6AEAB2AF0800A002E7FF4A9ABF8
:1056A000039B0A92002B9FD1CDE90B3308931193F2
:1056B0000293079356AFFFF7D5B85346FFF731BBB8
:1056C0000A9A04320A990A920E684FEAE6789A46D4
:1056D0004346002BBFF632AB2D238DF87F30039B62
:1056E000764268EB4808002BFFF64CAB2AF0800AA4
:1056F000FFF748BB0A9B1A1D0A9B0A921B680021F0
:10570000FFF711BADDE90E0102460B4605F0AAFDCE
:105710000646002840F0D887B9F1610F00F0E8850F
:10572000B9F1410F00F02E83039B013300F0A787EE
:10573000B9F1670F0F9B4AF4807800F02E87B9F11A
:10574000470F00F02A870790DDE90E12002AC0F209
:105750001C879DED0E7B8DED187B00231093A9F126
:105760004103252B00F2A182DFE813F04B079F02D3
:105770009F029F02020450049F029F029F029F0209
:105780009F029F029F029F029F029F029F029F0211
:105790009F029F029F029F029F029F029F029F0201
:1057A0009F029F029F029F029F029F024B079F0240
:1057B0009F029F02020450043F4E1AF0200100F0A5
:1057C000F0800A9B073323F007031A46596852F802
:1057D000083B0A921AF0010200F0C28053EA01026B
:1057E00000F04D8130228DF8802000228DF87F203E
:1057F000039A8DF88190002AC0F2FE802AF490620C
:1058000042F0020A03F00F020AF00200B25C8DF8C7
:1058100057211B0943EA01730A0953EA11110DF2DA
:1058200057170BD003F00F011B09715C07F8011D1E
:1058300043EA0273120953EA0201F3D1039A56AB09
:105840004FF0000CDB1B9A42CDE90BCCB8BF1A46D7
:1058500008930292CDF81CC0CDF844C000283FF454
:1058600001A8029BDDE92B06023302931AF08403A0
:105870001096864606D10699029AA1EB0208B8F165
:10588000000F07DCBCF1000F3FF409A84FF002083D
:10589000FEF7F4BF0223F7E5084E8EE74AF0020A4E
:1058A0000A92064E03F00F020220B25C4FF0780914
:1058B000ADE700BFC4C60000A8C6000094C6000043
:1058C000039956AAD21B91424FF00003B8BF11466C
:1058D000CDE90B330793089202911193FEF7C2BFF3
:1058E00004992AAA584601F067F900287FF408AC09
:1058F0002C9E2DACFEF7E3BF04992AAA584601F06E
:105900005BF900287FF4FCAB2C9E2DACFFF741BB6C
:10591000039BCDF82880062B3A4628BF0623CDE905
:1059200007730397CDE90B22AC4F02931192FEF758
:1059300099BF0822002128A8FEF770F80A9B3DAF06
:105940001A68394628AB584601F072FC0346013309
:1059500008905BD0089B23EAE3730293FFF76EB8CD
:105960008DF87F20039A002A48DB53EA01022AF4CB
:10597000906A7FF447AF039A002A00F0F780012A6B
:1059800033788DF85731B8BF0122002302920122EB
:10599000CDE90B330793089211930DF25717FEF7D9
:1059A00061BF0A9A52F8043B0A921AF010027FF47F
:1059B00011AF1AF0400000F062819BB2114609E776
:1059C00004992AAA584601F0F7F800287FF498AB0A
:1059D000DDE92B860DF1B409FFF7D3BB04992AAAA0
:1059E000584601F0E9F800287FF48AABDDE92B8600
:1059F0000DF1B409FFF7D4BB4AF0020A03F00F021D
:105A00000AF00200B25C2AF4806A00E70498B0F958
:105A10000C30426E43F04001D70781813FF594ACD2
:105A200099053FF591AC049CA06DFEF773F8B4F9AD
:105A30000C30FFF775BB049910932AAA584601F061
:105A4000BBF800287FF45CAB9DF87F202C9E109B58
:105A5000002A00F0AC8098462DAC03462B98FEF748
:105A60000DBF039B0893CDE90B331193079356AFFA
:105A7000FEF7F8BE5846FDF7A7FFFEF722BE039BD0
:105A8000002083428DF87F00C0F2A6832AF4906A3A
:105A900071E704992AAA584601F08EF800287FF48D
:105AA0002FAB2C9E2DACFFF762BA0822002128A84C
:105AB0002397FDF7B3FF039B002BC0F296830026CC
:105AC0000294079534461D460EE03DA9584601F064
:105AD000AFFB431C204400F0D985A84209DC06F145
